:020000040000FA
:100000000C9462000C948A000C948A000C948A0070
:100010000C948A000C948A000C948A000C948A0038
:100020000C948A000C948A000C948A000C948A0028
:100030000C948A000C948A000C948A000C948A0018
:100040000C941D030C948A000C948A000C948A0072
:100050000C948A000C948A000C948A000C948A00F8
:100060000C948A000C948A000000000024002700F1
:100070002A0000000000250028002B0000000000DE
:1000800023002600290004040404040404040202DA
:100090000202020203030303030301020408102007
:1000A0004080010204081020010204081020000012
:1000B0000008000201000003040700000000000027
:1000C00000003A0411241FBECFEFD8E0DEBFCDBF41
:1000D00011E0A0E0B1E0ECEBF8E002C005900D9279
:1000E000A234B107D9F721E0A2E4B1E001C01D922A
:1000F000A336B207E1F710E0C2E6D0E004C02197D2
:10010000FE010E945604C136D107C9F70E94670359
:100110000C945C040C940000833081F028F481304E
:1001200099F08230A9F008958730A9F08830C9F09D
:100130008430B1F4809180008F7D03C08091800075
:100140008F7780938000089584B58F7784BD08955C
:1001500084B58F7DFBCF8091B0008F778093B00006
:1001600008958091B0008F7DF9CFCF93DF93282F32
:1001700030E0F901E255FF4F8491F901E656FF4F57
:10018000D491F901EA57FF4FC491CC23A1F081111A
:100190000E948C00EC2FF0E0EE0FFF1FE458FF4FA1
:1001A000A591B491EC91ED2381E090E009F480E019
:1001B000DF91CF91089580E090E0FACF1F93CF9325
:1001C000DF93282F30E0F901E255FF4F8491F901C8
:1001D000E656FF4FD491F901EA57FF4FC491CC2363
:1001E000A9F0162F81110E948C00EC2FF0E0EE0F89
:1001F000FF1FEE58FF4FA591B4918FB7F894EC9183
:10020000111108C0D095DE23DC938FBFDF91CF9111
:100210001F910895DE2BF8CFCF93DF9390E0FC0180
:10022000E656FF4F24918A579F4FFC018491882303
:10023000D1F090E0880F991FFC01E859FF4FA5917C
:10024000B491FC01EE58FF4FC591D49161110EC0DD
:100250009FB7F8948C91E22FE0958E238C932881A0
:10026000E223E8839FBFDF91CF9108958FB7F89481
:10027000EC91E22BEC938FBFF6CF3FB7F8948091CF
:10028000470190914801A0914901B0914A0126B5DA
:10029000A89B05C02F3F19F00196A11DB11D3FBFBE
:1002A000BA2FA92F982F8827BC01CD01620F711D8D
:1002B000811D911D42E0660F771F881F991F4A9587
:1002C000D1F708958F929F92AF92BF92CF92DF9213
:1002D000EF92FF924B015C010E943D016B017C019A
:1002E0000E943D016C197D098E099F09683E73408B
:1002F00081059105A8F321E0821A9108A108B108AF
:1003000088EEC80E83E0D81EE11CF11C8114910414
:10031000A104B10429F7FF90EF90DF90CF90BF9038
:10032000AF909F908F900895AF92BF92CF92DF923F
:10033000EF92FF920F931F93CF93DF936C017B019A
:100340008B01040F151FEB015E01AE18BF08C0172B
:10035000D10759F06991D601ED91FC910190F0819E
:10036000E02DC6010995892B79F7C501DF91CF9161
:100370001F910F91FF90EF90DF90CF90BF90AF90C3
:100380000895089590E080E00895FC010190002018
:10039000E9F73197AF01481B590BBC018BE491E0A1
:1003A0000C949401CF93DF93EC0160E08E810E9466
:1003B000DE0061E08E810E94DE0060E08E810E949E
:1003C000DE008BE891E00197F1F7DF91CF9108957E
:1003D000CF92DF92EF92FF920F931F93CF93DF9311
:1003E0006C017C0187E0E80EF11CD0E0C0E0062F34
:1003F00010E0B8010C2E02C0759567950A94E2F7DB
:100400006170F70181917F010E94DE002196C43066
:10041000D10579F7C601DF91CF911F910F91FF9020
:10042000EF90DF90CF900C94D201CF92DF92EF92B9
:10043000FF920F931F93CF93DF93EC01F62E642F5F
:100440008C810E94DE008D818F3F19F060E00E9458
:10045000DE000F2D10E08F8584FF25C06E0187E040
:10046000C80ED11CF12CE12CB8010E2C02C07595E0
:1004700067950A94E2F76170F60181916F010E941D
:10048000DE00FFEFEF1AFF0A88E0E816F10461F7DB
:10049000CE01DF91CF911F910F91FF90EF90DF90F0
:1004A000CF900C94D201B80184E0759567958A9538
:1004B000E1F7CE010E94E8016F2DCE01DF91CF91CF
:1004C0001F910F91FF90EF90DF90CF900C94E80177
:1004D00040E0682F8BE491E00C94150281E00E94CB
:1004E00068028BE39FE10197F1F70895CF93DF93C3
:1004F000823029F490915A01986090935A01809328
:100500005E0110925F0180E48093600180E180933E
:10051000610180E58093620161E080914F010E945A
:100520000C01809150018F3F19F061E00E940C0195
:1005300061E0809151010E940C01CBE4D1E09E0169
:100540002B54314080915A0184FD0BC084E090E02F
:1005500021962817390744F461E08E810E940C012E
:10056000EECF88E090E0F4CF8BE39DE00197F1F7C8
:1005700060E080914F010E94DE0060E080915101B7
:100580000E94DE00809150018F3F19F060E00E94D0
:10059000DE0080915A0184FD34C063E08BE491E079
:1005A0000E94E801CBE4D6E4CE010197F1F763E0C5
:1005B0008BE491E00E94E8012197F1F763E08BE47E
:1005C00091E00E94E80183E592E00197F1F762E093
:1005D0008BE491E00E94E80180915A0180620E94C0
:1005E000680284E080935B018CE00E9468020E94B4
:1005F0006E0282E080935C0186E0DF91CF910C94E3
:10060000680280620E9468028BE496E40197F1F729
:1006100080915A0180620E94680283E592E001970E
:10062000F1F780915A0180620E946802D5CF41E0C3
:100630000E94150281E090E008951F920F920FB67C
:100640000F9211242F933F938F939F93AF93BF9358
:100650008091430190914401A0914501B0914601E0
:100660003091420123E0230F2D3758F50196A11D4B
:10067000B11D209342018093430190934401A093C4
:100680004501B09346018091470190914801A091A6
:100690004901B0914A010196A11DB11D8093470106
:1006A00090934801A0934901B0934A01BF91AF9143
:1006B0009F918F913F912F910F900FBE0F901F90A0
:1006C000189526E8230F0296A11DB11DD2CF78946C
:1006D00084B5826084BD84B5816084BD85B5826047
:1006E00085BD85B5816085BD80916E0081608093F8
:1006F0006E00109281008091810082608093810061
:100700008091810081608093810080918000816070
:10071000809380008091B10084608093B1008091CB
:10072000B00081608093B00080917A0084608093F3
:100730007A0080917A00826080937A0080917A00BA
:10074000816080937A0080917A00806880937A003B
:100750001092C10061E08CE00E940C0161E08DE02C
:100760000E940C0160E085E00E940C0160E084E0E2
:100770000E940C0182E00E9476020E946E028CE0D0
:1007800091E00E94C50168EE73E080E090E00E9475
:100790006201C0E0D0E085E00E94B5008C0184E0F9
:1007A0000E94B500019749F50E946E0289E191E02F
:1007B0000E94C50161E08CE00E94DE0068EC70E000
:1007C00080E090E00E94620160E08CE00E94DE0028
:1007D00068EC70E080E090E00E94620160E08DE0F3
:1007E0000E94DE0064EF71E080E090E00E94620110
:1007F000209789F20E940000CECF01301105E9F464
:100800000E946E0288E291E00E94C50161E08DE0E5
:100810000E94DE0068EC70E080E090E00E946201DF
:1008200060E08DE00E94DE0068EC70E080E090E027
:100830000E94620160E08CE0D3CF0E946E0288E3E8
:1008400091E00E94C501E0915E01E23088F4E15040
:10085000F0E0E55BFE4F848980680E9468028FE2C9
:1008600091E00E94C50160E08DE00E94DE00E2CFD1
:10087000E1E0EECFEBE4F1E01382128284E091E05C
:10088000918380838BE084838FEF85838AE08683E6
:1008900083E0878382E0808781E0818712861386E8
:1008A00014861586168617860C947602EE0FFF1FA7
:1008B0000590F491E02D0994F894FFCF000000001A
:1008C00017039401C201C10153797374656D2052FD
:1008D0006561647900446F6F722076696272617439
:1008E000696F6E004F626A65637420446574656366
:0E08F000746564004E6F204F626A6563740089
:107E0000112484B714BE81FFF0D085E080938100F7
:107E100082E08093C00088E18093C10086E0809377
:107E2000C20080E18093C4008EE0C9D0259A86E02C
:107E300020E33CEF91E0309385002093840096BBD3
:107E4000B09BFECF1D9AA8958150A9F7CC24DD24C4
:107E500088248394B5E0AB2EA1E19A2EF3E0BF2EE7
:107E6000A2D0813461F49FD0082FAFD0023811F036
:107E7000013811F484E001C083E08DD089C08234E0
:107E800011F484E103C0853419F485E0A6D080C0E4
:107E9000853579F488D0E82EFF2485D0082F10E0AE
:107EA000102F00270E291F29000F111F8ED06801E7
:107EB0006FC0863521F484E090D080E0DECF843638
:107EC00009F040C070D06FD0082F6DD080E0C81688
:107ED00080E7D80618F4F601B7BEE895C0E0D1E017
:107EE00062D089930C17E1F7F0E0CF16F0E7DF06D8
:107EF00018F0F601B7BEE89568D007B600FCFDCFD4
:107F0000A601A0E0B1E02C9130E011968C91119780
:107F100090E0982F8827822B932B1296FA010C0160
:107F200087BEE89511244E5F5F4FF1E0A038BF0790
:107F300051F7F601A7BEE89507B600FCFDCF97BE46
:107F4000E89526C08437B1F42ED02DD0F82E2BD052
:107F50003CD0F601EF2C8F010F5F1F4F84911BD097
:107F6000EA94F801C1F70894C11CD11CFA94CF0C13
:107F7000D11C0EC0853739F428D08EE10CD085E9AC
:107F80000AD08FE07ACF813511F488E018D01DD067
:107F900080E101D065CF982F8091C00085FFFCCF94
:107FA0009093C60008958091C00087FFFCCF809118
:107FB000C00084FD01C0A8958091C6000895E0E648
:107FC000F0E098E1908380830895EDDF803219F02E
:107FD00088E0F5DFFFCF84E1DECF1F93182FE3DFCA
:107FE0001150E9F7F2DF1F91089580E0E8DFEE27F6
:047FF000FF270994CA
:027FFE00040479
:00000001FF
