:100000000C9462000C948A000C948A000C948A0070
:100010000C948A000C948A000C948A000C948A0038
:100020000C948A000C948A000C948A000C9441026F
:100030000C948A000C948A000C948A000C948A0018
:100040000C94F7010C948A000C948A000C948A009A
:100050000C948A000C948A000C948A000C948A00F8
:100060000C948A000C948A000000000024002700F1
:100070002A0000000000250028002B0000000008D6
:10008000000201000003040700000000000000005F
:1000900000000000230026002900040404040404D6
:1000A0000404020202020202030303030303010227
:1000B00004081020408001020408102001020408F6
:1000C0001020860411241FBECFEFD8E0DEBFCDBFC5
:1000D00011E0A0E0B1E0E4E9FCE002C005900D927F
:1000E000A030B107D9F721E0A0E0B1E001C01D9236
:1000F000A833B207E1F710E0C2E6D0E004C02197D0
:10010000FE010E944206C136D107C9F70E9447038B
:100110000C9448060C940000CF92DF92EF92FF926D
:10012000DC01A03282E0B8070CF03EC0B7FD06C08B
:10013000A53BB1052CF0A4EBB0E002C0A0E0B0E01C
:100140008091360128E830E06901C81AD10887FD9E
:10015000D394CC0CDD1CCC0CDD1C0D2C000CEE085B
:10016000FF088091370128E532E0281B310987FD1F
:100170003395220F331F220F331FA901330F660B54
:10018000770B9A01AB012C193D094E095F090E94BA
:10019000CC0424EB30E040E050E00E94A204C20E08
:1001A000D31EE41EF51ED601909135019C3098F5C2
:1001B0008091360148E850E0481B510987FD53956E
:1001C000440F551F440F551FA417B5078CF080919D
:1001D000370128E532E0281B310987FD3395220FCE
:1001E000331F220F331FAD012A173B070CF4A9015F
:1001F00042505109440F551F2FB7F894892F90E0B2
:10020000FC01EE0FFF1F8E0F9F1FFC01EF5EFE4FE4
:10021000528341832FBFFF90EF90DF90CF900895DE
:1002200090E0FC01E458FF4F3491FC01E255FF4F90
:100230002491FC01E656FF4FE491EE2309F43BC004
:10024000332339F1333091F038F43130A9F03230C2
:1002500001F584B58F7D12C0373091F03830A1F0B0
:100260003430B9F4809180008F7D03C0809180008C
:100270008F77809380000DC084B58F7784BD09C0CF
:100280008091B0008F7703C08091B0008F7D809304
:10029000B000F0E0EE0FFF1FEE58FF4FA591B491B4
:1002A0008FB7F894EC91611103C020952E2301C003
:1002B0002E2B2C938FBF0895CF93DF9390E0FC01FA
:1002C000E255FF4F2491FC01E656FF4F84918823AD
:1002D00061F190E0880F991FFC01E859FF4FC5912B
:1002E000D491FC01EE58FF4FA591B491611109C062
:1002F0009FB7F8948881209582238883EC912E23E0
:100300000BC0623061F49FB7F8943881822F8095DA
:1003100083238883EC912E2B2C939FBF06C08FB72D
:10032000F894E8812E2B28838FBFDF91CF91089519
:100330003FB7F8948091070190910801A0910901BD
:10034000B0910A0126B5A89B05C02F3F19F0019670
:10035000A11DB11D3FBFBA2FA92F982F8827820F4B
:10036000911DA11DB11DBC01CD0142E0660F771F9B
:10037000881F991F4A95D1F708958F929F92AF9247
:10038000BF92CF92DF92EF92FF926B017C010E94AD
:1003900098014B015C01C114D104E104F104F1F0B6
:1003A0000E949801DC01CB0188199909AA09BB09AF
:1003B000883E9340A105B10570F321E0C21AD1082F
:1003C000E108F10888EE880E83E0981EA11CB11C9C
:1003D000C114D104E104F10419F7DDCFFF90EF90CF
:1003E000DF90CF90BF90AF909F908F9008951F9215
:1003F0000F920FB60F9211242F933F938F939F93D9
:10040000AF93BF938091030190910401A0910501E6
:10041000B09106013091020123E0230F2D3720F423
:100420000196A11DB11D05C026E8230F0296A11D4E
:10043000B11D209302018093030190930401A093C6
:100440000501B09306018091070190910801A091E8
:100450000901B0910A010196A11DB11D8093070108
:1004600090930801A0930901B0930A01BF91AF9145
:100470009F918F913F912F910F900FBE0F901F90E2
:1004800018951F920F920FB60F9211242F933F933E
:100490004F935F936F937F938F939F93AF93BF938C
:1004A000EF93FF938091010187FF05C010928500B3
:1004B000109284001BC020910101022E000C330B0E
:1004C0008091000190E02817390784F480910101A0
:1004D000082E000C990BFC01EE0FFF1F8E0F9F1FC3
:1004E000FC01EF5EFE4F808186FD15C08091010109
:1004F0008F5F8093010120910101022E000C330BCC
:100500008091000190E028173907C4F4809101011F
:100510008C3064F113C080910101082E000C990BFE
:10052000FC01EE0FFF1F8E0F9F1FFC01EF5EFE4FC1
:10053000808160E08F730E941001D8CF8091840089
:1005400090918500049680349C4918F480E49CE9DD
:1005500005C0809184009091850004969093890055
:10056000809388008FEF809301013BC0209184002D
:100570003091850080910101082E000C990BFC013F
:10058000EE0FFF1F8E0F9F1FFC01EF5EFE4F81815C
:100590009281820F931F90938900809388008091AD
:1005A0000101082E000C990BFC01EE0FFF1F8E0FAE
:1005B0009F1FFC01EF5EFE4F808186FF12C080917D
:1005C0000101082E000C990BFC01EE0FFF1F8E0F8E
:1005D0009F1FFC01EF5EFE4F808161E08F730E94E0
:1005E0001001FF91EF91BF91AF919F918F917F91FA
:1005F0006F915F914F913F912F910F900FBE0F9090
:100600001F901895CF92DF92EF92FF920F931F9356
:10061000E82FF92F05C0015011092109310961F1B5
:10062000908196239417B9F305C00150110921094F
:10063000310911F1908196239413F7CFC12CD12C5D
:10064000E12CF12C0AC08FEFC81AD80AE80AF80A80
:100650000C151D052E053F0579F080818623841732
:1006600091F36C2D7D2D8E2D9F2D1F910F91FF905D
:10067000EF90DF90CF90089560E070E080E090E030
:100680001F910F91FF90EF90DF90CF900895789495
:1006900084B5826084BD84B5816084BD85B5826087
:1006A00085BD85B5816085BD80916E008160809338
:1006B0006E001092810080918100826080938100A1
:1006C00080918100816080938100809180008160B1
:1006D000809380008091B10084608093B10080910C
:1006E000B00081608093B00080917A008460809334
:1006F0007A0080917A00826080937A0080917A00FB
:10070000816080937A0080917A00806880937A007B
:100710001092C10061E089E00E945C0160E08AE023
:100720000E945C0161E08DE00E945C0180913501D6
:100730008C3008F051C061E08BE00E945C01809138
:100740003501E82FF0E09F01220F331FE20FF31F66
:10075000EF5EFE4F9081907C9B60908310923601FB
:10076000109237016CE00E9436069CE0899FB00130
:10077000112440E050E09A01260F371FF901EE0FD7
:10078000FF1F2E0F3F1FF901EF5EFE4F908196FD78
:1007900016C04F5F5F4F4C30510569F781110FC094
:1007A0001092800082E08093810010928500109268
:1007B0008400B19A80916F00826080936F00E09115
:1007C0003501F0E0CF01880F991FE80FF91FEF5EA8
:1007D000FE4F80818064808380E090E00E948C00E6
:1007E000C3E0D0E093E2E92EF12C28EBC22E20E00A
:1007F000D22E34EAA32E30E0B32E40E0842E40E027
:10080000942E60E089E00E941001CE010197F1F77B
:1008100061E089E00E941001C7010197F1F760E0F3
:1008200089E00E941001F6016491F5018491E82F9E
:10083000F0E0EE0FFF1FE057FF4F8591949100E429
:1008400012E42FE030E0462F0E940203611571058B
:100850008105910549F0DC01CB010196A11DB11D77
:10086000BC01CD019F7003C060E070E0CB016093DC
:100870000D0170930E0180930F01909310010E945F
:100880003D0526E933E44BE05DE30E94A10520E04D
:1008900030E040E05FE30E94A1050E9405057093EF
:1008A0000C0160930B016150710964317105E8F42A
:1008B00061E08DE00E9410018AE590E00E948C00CA
:1008C00060ED77E080E090E00E94BD0180E090E084
:1008D0000E948C0060E08DE00E94100164EF71E0E6
:1008E00080E090E00E94BD0104C060E08DE00E94C5
:1008F000100168EC70E080E090E00E94BD0181147E
:10090000910409F47ECF0E9400007BCF809100010A
:100910008C30A0F491E0980F909300018093350102
:1009200090E0FC01EE0FFF1F8E0F9F1FFC01EF5E9A
:10093000FE4F88EB9BE09283818308958FEF809335
:1009400035010895052E97FB1EF400940E94B9040A
:1009500057FD07D00E94D40407FC03D04EF40C943A
:10096000B90450954095309521953F4F4F4F5F4FBB
:10097000089590958095709561957F4F8F4F9F4F0B
:1009800008950E94F604A59F900DB49F900DA49F1A
:10099000800D911D11240895B7FF0C94C1040E948D
:1009A000C104821B930B0895A1E21A2EAA1BBB1B44
:1009B000FD010DC0AA1FBB1FEE1FFF1FA217B3072B
:1009C000E407F50720F0A21BB30BE40BF50B661F41
:1009D000771F881F991F1A9469F760957095809505
:1009E00090959B01AC01BD01CF010895A29FB0017C
:1009F000B39FC001A39F700D811D1124911DB29F53
:100A0000700D811D1124911D08950E940C0568949C
:100A1000B1110C949B0508950E94800588F09F57A2
:100A200098F0B92F9927B751B0F0E1F0660F771F12
:100A3000881F991F1AF0BA95C9F714C0B13091F008
:100A40000E949A05B1E008950C949A05672F782FBB
:100A50008827B85F39F0B93FCCF3869577956795CD
:100A6000B395D9F73EF490958095709561957F4F39
:100A70008F4F9F4F0895E89409C097FB3EF49095DF
:100A80008095709561957F4F8F4F9F4F9923A9F067
:100A9000F92F96E9BB279395F695879577956795F6
:100AA000B795F111F8CFFAF4BB0F11F460FF1BC03A
:100AB0006F5F7F4F8F4F9F4F16C0882311F096E9CD
:100AC00011C0772321F09EE8872F762F05C066237B
:100AD00071F096E8862F70E060E02AF09A95660F34
:100AE000771F881FDAF7880F9695879597F90895ED
:100AF00057FD9058440F551F59F05F3F71F04795CF
:100B0000880F97FB991F61F09F3F79F087950895B3
:100B1000121613061406551FF2CF4695F1DF08C0D2
:100B2000161617061806991FF1CF869571056105EF
:100B300008940895E894BB2766277727CB0197F997
:100B400008950E94B4050C9425060E94170638F0FB
:100B50000E941E0620F0952311F00C940E060C94B2
:100B6000140611240C949B050E94780570F3959F40
:100B7000C1F3950F50E0551F629FF001729FBB2794
:100B8000F00DB11D639FAA27F00DB11DAA1F649F30
:100B90006627B00DA11D661F829F2227B00DA11DE3
:100BA000621F739FB00DA11D621F839FA00D611D69
:100BB000221F749F3327A00D611D231F849F600D8A
:100BC000211D822F762F6A2F11249F5750409AF0B3
:100BD000F1F088234AF0EE0FFF1FBB1F661F771F3F
:100BE000881F91505040A9F79E3F510580F00C940A
:100BF0000E060C949B055F3FE4F3983ED4F3869574
:100C000077956795B795F795E7959F5FC1F7FE2BA9
:100C1000880F911D9695879597F9089597F99F6785
:100C200080E870E060E008959FEF80EC0895002474
:100C30000A941616170618060906089500240A9441
:100C400012161306140605060895092E0394000CC7
:100C500011F4882352F0BB0F40F4BF2B11F460FF56
:100C600004C06F5F7F4F8F4F9F4F0895991B79E0AE
:100C700004C0991F961708F0961B881F7A95C9F72C
:100C800080950895EE0FFF1F0590F491E02D0994D3
:040C9000F894FFCF06
:107E0000112484B714BE81FFF0D085E080938100F7
:107E100082E08093C00088E18093C10086E0809377
:107E2000C20080E18093C4008EE0C9D0259A86E02C
:107E300020E33CEF91E0309385002093840096BBD3
:107E4000B09BFECF1D9AA8958150A9F7CC24DD24C4
:107E500088248394B5E0AB2EA1E19A2EF3E0BF2EE7
:107E6000A2D0813461F49FD0082FAFD0023811F036
:107E7000013811F484E001C083E08DD089C08234E0
:107E800011F484E103C0853419F485E0A6D080C0E4
:107E9000853579F488D0E82EFF2485D0082F10E0AE
:107EA000102F00270E291F29000F111F8ED06801E7
:107EB0006FC0863521F484E090D080E0DECF843638
:107EC00009F040C070D06FD0082F6DD080E0C81688
:107ED00080E7D80618F4F601B7BEE895C0E0D1E017
:107EE00062D089930C17E1F7F0E0CF16F0E7DF06D8
:107EF00018F0F601B7BEE89568D007B600FCFDCFD4
:107F0000A601A0E0B1E02C9130E011968C91119780
:107F100090E0982F8827822B932B1296FA010C0160
:107F200087BEE89511244E5F5F4FF1E0A038BF0790
:107F300051F7F601A7BEE89507B600FCFDCF97BE46
:107F4000E89526C08437B1F42ED02DD0F82E2BD052
:107F50003CD0F601EF2C8F010F5F1F4F84911BD097
:107F6000EA94F801C1F70894C11CD11CFA94CF0C13
:107F7000D11C0EC0853739F428D08EE10CD085E9AC
:107F80000AD08FE07ACF813511F488E018D01DD067
:107F900080E101D065CF982F8091C00085FFFCCF94
:107FA0009093C60008958091C00087FFFCCF809118
:107FB000C00084FD01C0A8958091C6000895E0E648
:107FC000F0E098E1908380830895EDDF803219F02E
:107FD00088E0F5DFFFCF84E1DECF1F93182FE3DFCA
:107FE0001150E9F7F2DF1F91089580E0E8DFEE27F6
:047FF000FF270994CA
:027FFE00040479
:0400000300007E007B
:00000001FF
