:100000000C945E000C9486000C9486000C94860080
:100010000C9486000C9486000C9486000C94860048
:100020000C9486000C9486000C9486000C94860038
:100030000C9486000C9486000C9486000C94860028
:100040000C943B030C9486000C9486000C94860060
:100050000C9486000C9486000C9486000C94860008
:100060000C9486000C948600000000080002010039
:100070000003040700000000000000000000000072
:10008000250028002B0000000000240027002A0083
:10009000040404040404040402020202020203032E
:1000A0000303030301020408102040800102040836
:1000B00010200102040810209C04E40411241FBE37
:1000C000CFEFD8E0DEBFCDBF21E0A4E4B1E001C0B6
:1000D0001D92A937B207E1F711E0A0E0B1E0E0E539
:1000E000FEE002C005900D92A434B107D9F710E0EC
:1000F000CDE5D0E004C02197FE010E942305CC3558
:10010000D107C9F70E9485030C941B070C940000CB
:1001100090E0FC01EC55FF4F249180579F4FFC016C
:100120008491882399F090E0880F991FFC01EA5789
:10013000FF4FA591B491FC01E458FF4F8591949134
:100140008FB7F894EC91E22BEC938FBF0895AF92A8
:10015000BF92CF92DF92EF92FF920F931F93CF93B4
:10016000DF936C017B018B01040F151FEB015E0116
:10017000AE18BF08C017D10759F06991D601ED91AB
:10018000FC910190F081E02DC6010995892B79F74A
:10019000C501DF91CF911F910F91FF90EF90DF90FC
:1001A000CF90BF90AF90089590E0FC01E859FF4FC9
:1001B0002491FC01EC55FF4F3491FC01E057FF4FB7
:1001C000E491EE23C9F0222339F0233001F1A8F4A1
:1001D000213019F1223029F1F0E0EE0FFF1FE45831
:1001E000FF4FA591B4918FB7F894EC91611126C09F
:1001F00030953E233C938FBF08952730A9F02830D7
:10020000C9F0243049F7809180008F7D03C0809130
:1002100080008F7780938000DFCF84B58F7784BD97
:10022000DBCF84B58F7DFBCF8091B0008F7780933B
:10023000B000D2CF8091B0008F7DF9CF3E2BDACFC6
:100240003FB7F8948091490190914A01A0914B01E8
:10025000B0914C0126B5A89B05C02F3F19F001961F
:10026000A11DB11D3FBFBA2FA92F982F8827BC0110
:10027000CD01620F711D811D911D42E0660F771F38
:10028000881F991F4A95D1F70895089590E080E05E
:100290000895FC0180819181009711F00C94C505AF
:1002A0000895EF92FF920F931F93CF93DF93EC018A
:1002B0007B018A0188819981009729F02A813B81FD
:1002C0002417350788F4B8016F5F7F4F0E944E06F0
:1002D000009791F0998388831B830A832C813D8149
:1002E000232B11F4FC0110821D830C83B70188813C
:1002F00099810E9414070CC088819981009711F0A0
:100300000E94C505198218821D821C821B821A82D6
:10031000CE01DF91CF911F910F91FF90EF90089543
:10032000AF92BF92CF92DF92EF92FF920F931F9303
:10033000CF93DF93EC016B015A0179012417350744
:1003400020F48B2D5901E42EF82E198218821B827D
:100350001A821D821C8250E040E063E471E0CE010D
:100360000E945101D60114960D911C91A016B10660
:1003700028F5E016F10608F48701D601ED91FC910D
:100380001197E00FF11FF08010826D917C916A0D42
:100390007B1D61157105F1F0FB0101900020E9F76B
:1003A0003197AF01461B570BCE010E945101F60158
:1003B00080819181080F191FD801FC92CE01DF9135
:1003C000CF911F910F91FF90EF90DF90CF90BF9052
:1003D000AF90089588819981009711F00E94C5051A
:1003E000198218821D821C821B821A82E0CFCF9351
:1003F000DF93EC0160E08E810E94D40061E08E8189
:100400000E94D40060E08E810E94D4008BE891E0CD
:100410000197F1F7DF91CF910895CF92DF92EF929C
:10042000FF920F931F93CF93DF936C017C0187E0C2
:10043000E80EF11CD0E0C0E0062F10E0B8010C2E51
:1004400002C0759567950A94E2F76170F701819192
:100450007F010E94D4002196C430D10579F7C601EE
:10046000DF91CF911F910F91FF90EF90DF90CF9090
:100470000C94F701CF92DF92EF92FF920F931F93AC
:10048000CF93DF93EC01F62E642F8C810E94D40071
:100490008D818F3F19F060E00E94D4000F2D10E095
:1004A0008F8584FF25C06E0187E0C80ED11CF12C1A
:1004B000E12CB8010E2C02C0759567950A94E2F7FD
:1004C0006170F60181916F010E94D400FFEFEF1A75
:1004D000FF0A88E0E816F10461F7CE01DF91CF91C1
:1004E0001F910F91FF90EF90DF90CF900C94F70148
:1004F000B80184E0759567958A95E1F7CE010E9471
:100500000D026F2DCE01DF91CF911F910F91FF90C2
:10051000EF90DF90CF900C940D0240E0682F8DE5B6
:1005200091E00C943A02CF93DF93823029F49091BA
:100530006C01986090936C0180937001109271012E
:1005400080E48093720180E18093730180E5809361
:100550007401809161010E948800809162018F3F47
:1005600011F00E948800809163010E948800CDE50F
:10057000D1E09E012D55314080916C0184FD0AC06F
:1005800084E090E02196281739073CF48E810E9480
:100590008800EFCF88E090E0F5CF8BE39DE00197F6
:1005A000F1F760E0809161010E94D40060E08091E9
:1005B00063010E94D400809162018F3F19F060E0D6
:1005C0000E94D40080916C0184FD39C063E08DE508
:1005D00091E00E940D02CBE4D6E4CE010197F1F741
:1005E00063E08DE591E00E940D022197F1F763E051
:1005F0008DE591E00E940D0283E592E00197F1F70D
:1006000062E08DE591E00E940D0280916C018062B4
:100610000E948D0284E080936D018CE00E948D0227
:1006200081E00E948D028BE39FE10197F1F782E068
:1006300080936E0186E0DF91CF910C948D028062F1
:100640000E948D028BE496E40197F1F780916C0192
:1006500080620E948D0283E592E00197F1F780911C
:100660006C0180620E948D02D0CF41E00E943A026C
:1006700081E090E008951F920F920FB60F9211241F
:100680002F933F938F939F93AF93BF938091450197
:1006900090914601A0914701B091480130914401E9
:1006A00023E0230F2D3758F50196A11DB11D20938E
:1006B00044018093450190934601A0934701B09374
:1006C00048018091490190914A01A0914B01B0915C
:1006D0004C010196A11DB11D8093490190934A01DF
:1006E000A0934B01B0934C01BF91AF919F918F911B
:1006F0003F912F910F900FBE0F901F90189526E8F5
:10070000230F0296A11DB11DD2CFCF93DF9300D04E
:1007100000D000D0CDB7DEB7789484B5826084BDB8
:1007200084B5816084BD85B5826085BD85B58160F5
:1007300085BD80916E00816080936E001092810073
:10074000809181008260809381008091810081602E
:1007500080938100809180008160809380008091EF
:10076000B10084608093B1008091B000816080937B
:10077000B00080917A00846080937A0080917A0042
:10078000826080937A0080917A00816080937A0001
:1007900080917A00806880937A001092C10082E094
:1007A0000E94930290E0C92E90E0D92E0FEF1FEF28
:1007B000EE24E394F12CE1E0809170018111E0E0FE
:1007C000E195F0E0E35AFE4F848980680E948D0233
:1007D00040915B0150915C019A01205F3F4F65E5BC
:1007E00071E0CE0101960E9490014D815E81698188
:1007F0007A818DE591E00E94A700CE0101960E94CA
:100800004901E0917001E23008F077C0E150F0E07A
:10081000E35AFE4F848980680E948D024091530103
:10082000509154019A01205F3F4F6DE471E0CE0179
:1008300001960E9490014D815E8169817A818DE5EA
:1008400091E00E94A700CE0101960E9449012091EB
:100850005B0130915C018091020190910301280FAE
:10086000391F30935C0120935B018091530190917B
:1008700054014091000150910101840F951F909304
:1008800054018093530112161306CCF1F092030128
:10089000E0920201181619060CF43FC0F092010113
:1008A000E09200010E9420012B013C018AEF882E7A
:1008B000912CA12CB12C0E94200164197509860984
:1008C0009709683E734081059105A8F321E0821ADB
:1008D0009108A108B10888EE480E83E0581E611CFB
:1008E000711C81149104A104B10429F7C114D1042D
:1008F00009F461CF0E9400005ECFE1E088CF409113
:10090000590150915A01405151092417350710F2ED
:100910001093030100930201BDCF2091510130914A
:100920005201205131098217930708F4BBCF10936D
:10093000010100930001B6CFCF93DF93EDE5F1E025
:10094000138212828EE091E0918380838CE0848315
:100950008FEF85838BE0868385E0878384E08087C3
:1009600083E0818782E08287138614861586168647
:10097000178681E00E949302E5E5F1E01182108282
:1009800013821282158214824DE250E066E171E01A
:10099000CF010E945101CDE4D1E0198218821B825F
:1009A0001A821D821C824DE250E066E171E0CE01A8
:1009B0000E9451018C819D814097909354018093B6
:1009C0005301DF91CF9108958DE491E00E94490198
:1009D00085E591E00C9449012F923F924F925F92EE
:1009E0006F927F928F929F92AF92BF92CF92DF923F
:1009F000EF92FF920F931F93CF93DF93CDB7DEB7A4
:100A0000CA1BDB0B0FB6F894DEBF0FBECDBF099437
:100A10002A88398848885F846E847D848C849B848E
:100A2000AA84B984C884DF80EE80FD800C811B819C
:100A3000AA81B981CE0FD11D0FB6F894DEBF0FBECB
:100A4000CDBFED010895EE0FFF1F0590F491E02D4D
:100A500009940F931F93CF93DF938230910510F485
:100A600082E090E0E0917701F091780130E020E0C1
:100A7000B0E0A0E0309799F42115310509F44AC09F
:100A8000281B390B24303105D8F58A819B816115EB
:100A9000710589F1FB0193838283FE0111C04081BE
:100AA00051810281138148175907E0F0481759070F
:100AB00099F4109761F012960C93129713961C9369
:100AC0003296CF01DF91CF911F910F91089500933E
:100AD000770110937801F4CF2115310551F04217B9
:100AE000530738F0A901DB019A01BD01DF01F801CC
:100AF000C1CFEF01F9CF9093780180937701CDCFEB
:100B0000FE01E20FF31F8193919322503109398343
:100B10002883D7CF2091750130917601232B41F4A2
:100B200020910601309107013093760120937501E1
:100B300020910401309105012115310541F42DB7B3
:100B40003EB74091080150910901241B350BE091FB
:100B50007501F0917601E217F307A0F42E1B3F0B0D
:100B60002817390778F0AC014E5F5F4F241735071F
:100B700048F04E0F5F1F50937601409375018193AB
:100B800091939FCFF0E0E0E09CCFCF93DF9300976D
:100B9000E9F0FC01329713821282A0917701B091A3
:100BA0007801ED0130E020E01097A1F4208131813F
:100BB000820F931F20917501309176012817390714
:100BC00009F061C0F0937601E0937501DF91CF9158
:100BD0000895EA01CE17DF07E8F54A815B819E019F
:100BE00041155105B1F7E901FB83EA834991599118
:100BF000C40FD51FEC17FD0761F480819181029627
:100C0000840F951FE90199838883828193819B8357
:100C10008A83F0E0E0E012968D919C911397009703
:100C2000B9F52D913C911197CD010296820F931F3A
:100C300020917501309176012817390739F63097E0
:100C400051F51092780110927701B0937601A0933C
:100C50007501BCCFD383C28340815181840F951F1E
:100C6000C817D90761F44E5F5F4F88819981480F9B
:100C7000591F518340838A819B81938382832115ED
:100C8000310509F0B0CFF0937801E09377019ECF62
:100C9000FD01DC01C0CF13821282D7CFB0E0A0E00B
:100CA000E4E5F6E00C94EE048C01009751F4CB01DE
:100CB0000E9429058C01C801CDB7DEB7E0E10C9494
:100CC0000A05FC01E60FF71F9C0122503109E217CB
:100CD000F30708F49DC0D901CD91DC911197C61797
:100CE000D70798F0C530D10530F3CE0104978617A9
:100CF000970708F3C61BD70B2297C193D1936D9327
:100D00007C93CF010E94C505D6CF5B01AC1ABD0A0A
:100D10004C018C0E9D1EA0917701B0917801512C51
:100D2000412CF12CE12C109731F5809175019091B7
:100D300076018815990509F05CC04616570608F03B
:100D400058C08091040190910501009741F48DB73E
:100D50009EB74091080150910901841B950BE8173B
:100D6000F90708F055C0F0937601E0937501F90199
:100D700071836083A0CF8D919C91119712966C9096
:100D8000129713967C901397A815B90559F56C0125
:100D900042E0C40ED11CCA14DB0420F1AC014A1994
:100DA0005B09DA011296159780F062827382518393
:100DB0004083D9016D937C93E114F10471F0D70164
:100DC0001396FC93EE93129776CF22968C0F9D1F6D
:100DD000F90191838083F301EFCFF0937801E093E1
:100DE000770169CF4816590608F42C017D01D3011B
:100DF0009ACFCB010E9429057C01009749F0AE01F2
:100E0000B8010E940B07C8010E94C505870153CF96
:100E100010E000E050CFFB01DC0102C001900D9218
:100E200041505040D8F70895FB01DC0101900D922C
:100E30000020E1F7089510E0CDE5D0E004C0FE0108
:100E40000E9423052196CE35D107C9F7F894FFCF2C
:100E5000FFFF010000007901800000000000350361
:100E6000A70046014501202020202020202020200E
:100E700020202020202068656C6C6F2C20776F72FA
:100E80006C642120202020202020202020202020D1
:040E900020202000FE
:00000001FF
