:020000040000FA
:100000000C945D000C9485000C9485000C94850084
:100010000C9485000C9485000C9485000C9485004C
:100020000C9485000C9485000C9485000C947D0341
:100030000C9485000C9485000C9485000C9485002C
:100040000C9433030C9485000C9485000C9485006B
:100050000C9485000C9485000C9485000C9485000C
:100060000C9485000C9485000000000024002700FB
:100070002A0000000000250028002B0004040404CE
:100080000404040402020202020203030303030342
:10009000010204081020408001020408102001021F
:1000A00004081020000000080002010000030407FB
:1000B0000000000000000000FD0511241FBECFEF6E
:1000C000D8E0DEBFCDBF11E0A0E0B1E0E0EFF1E1AC
:1000D00002C005900D92A632B107D9F721E0A6E241
:1000E000B1E001C01D92A437B207E1F710E0CDE501
:1000F000D0E004C02197FE010E94F008CC35D10762
:10010000C9F70E9439040C94F6080C9400008F92F1
:100110009F92AF92BF92FF920F931F93CF93DF9363
:10012000F09059012BE02F1508F44CC020915B0191
:1001300008E512E0021B110927FD1395000F111F9E
:10014000000F111F20915A01C8E8D0E0C21BD1094D
:1001500027FDD395CC0FDD1FCC0FDD1F4E010D2EDB
:10016000000CAA08BB089801012E000C440B550B8B
:10017000281939094A095B09DC010E946F0624EB42
:1001800030E040E050E00E944506820E931EA41E1F
:10019000B51E8C169D062CF0E801801691060CF415
:1001A000E4012297CC0FDD1F2FB7F8948F2D90E03C
:1001B000FC01EE0FFF1FE80FF91FEB5CFE4FD2832F
:1001C000C1832FBFDF91CF911F910F91FF90BF90FF
:1001D000AF909F908F90089590E0FC01EC55FF4FF9
:1001E0002491FC01E057FF4F3491FC01E458FF4F8C
:1001F000E491EE23C9F0222339F0233001F1A8F471
:10020000213019F1223029F1F0E0EE0FFF1FEE58F6
:10021000FF4FA591B4918FB7F894EC91611126C06E
:1002200030953E233C938FBF08952730A9F02830A6
:10023000C9F0243049F7809180008F7D03C0809100
:1002400080008F7780938000DFCF84B58F7784BD67
:10025000DBCF84B58F7DFBCF8091B0008F7780930B
:10026000B000D2CF8091B0008F7DF9CF3E2BDACF96
:10027000CF93DF9390E0FC01E057FF4F2491845827
:100280009F4FFC0184918823D1F090E0880F991F43
:10029000FC01E859FF4FA591B491FC01EE58FF4FC6
:1002A000C591D49161110EC09FB7F8948C91E22F43
:1002B000E0958E238C932881E223E8839FBFDF9112
:1002C000CF9108958FB7F894EC91E22BEC938FBF08
:1002D000F6CFAF92BF92CF92DF92EF92FF920F9341
:1002E0001F93CF93DF936C017B018B01040F151FCC
:1002F000EB015E01AE18BF08C017D10759F0699134
:10030000D601ED91FC910190F081E02DC601099597
:10031000892B79F7C501DF91CF911F910F91FF9044
:10032000EF90DF90CF90BF90AF900895089590E048
:1003300080E00895FC0101900020E9F73197AF01BA
:10034000481B590BBC018CE591E00C9469018F921C
:100350009F92AF92BF920F931F93CF93DF93CDB72E
:10036000DEB7A1970FB6F894DEBF0FBECDBF19A2BE
:10037000423008F44AE08E010F5D1F4F842E912C0D
:10038000B12CA12CA50194010E947706E62FB9019A
:10039000CA01EA30F4F4E05DD801EE938D01232B1D
:1003A000242B252B79F790E080E0109719F0CD01F0
:1003B0000E949A01A1960FB6F894DEBF0FBECDBF82
:1003C000DF91CF911F910F91BF90AF909F908F9031
:1003D0000895E95CE1CFCF93DF93EC0160E08E817B
:1003E0000E94EC0061E08E810E94EC0060E08E8152
:1003F0000E94EC008BE891E00197F1F7DF91CF913B
:100400000895CF92DF92EF92FF920F931F93CF93B5
:10041000DF936C017C0187E0E80EF11CD0E0C0E0C6
:10042000062F10E0B8010C2E02C0759567950A944E
:10043000E2F76170F70181917F010E94EC00219643
:10044000C430D10579F7C601DF91CF911F910F918B
:10045000FF90EF90DF90CF900C94EB01CF92DF9262
:10046000EF92FF920F931F93CF93DF93EC01F62E41
:10047000642F8C810E94EC008D818F3F19F060E029
:100480000E94EC000F2D10E08F8584FF25C06E01C7
:1004900087E0C80ED11CF12CE12CB8010E2C02C053
:1004A000759567950A94E2F76170F60181916F0185
:1004B0000E94EC00FFEFEF1AFF0A88E0E816F10453
:1004C00061F7CE01DF91CF911F910F91FF90EF90D7
:1004D000DF90CF900C94EB01B80184E0759567959F
:1004E0008A95E1F7CE010E9401026F2DCE01DF91C6
:1004F000CF911F910F91FF90EF90DF90CF900C94D0
:10050000010240E0682F8CE591E00C942E02CF931D
:10051000DF93823029F490916B01986090936B0186
:1005200080936F011092700180E48093710180E1EB
:100530008093720180E58093730161E08091600196
:100540000E943801809161018F3F19F061E00E94A3
:10055000380161E0809162010E943801CCE5D1E070
:100560009E012C55314080916B0184FD0BC084E0CD
:1005700090E021962817390744F461E08E810E94AB
:100580003801EECF88E090E0F4CF8BE39DE0019757
:10059000F1F760E0809160010E94EC0060E08091E2
:1005A00062010E94EC00809161018F3F19F060E0D0
:1005B0000E94EC0080916B0184FD39C063E08CE502
:1005C00091E00E940102CBE4D6E4CE010197F1F75D
:1005D00063E08CE591E00E9401022197F1F763E06E
:1005E0008CE591E00E94010283E592E00197F1F72A
:1005F00062E08CE591E00E94010280916B018062D3
:100600000E94810284E080936C018CE00E94810250
:1006100081E00E9481028BE39FE10197F1F782E084
:1006200080936D0186E0DF91CF910C94810280620E
:100630000E9481028BE496E40197F1F780916B01AF
:1006400080620E94810283E592E00197F1F7809138
:100650006B0180620E948102D0CF41E00E942E0295
:1006600081E090E008951F920F920FB60F9211242F
:100670002F933F938F939F93AF93BF9380913101BB
:1006800090913201A0913301B09134013091300149
:1006900023E0230F2D3758F50196A11DB11D20939E
:1006A00030018093310190933201A0933301B093D4
:1006B000340180912C0190912D01A0912E01B091D7
:1006C0002F010196A11DB11D80932C0190932D0146
:1006D000A0932E01B0932F01BF91AF919F918F9165
:1006E0003F912F910F900FBE0F901F90189526E805
:1006F000230F0296A11DB11DD2CF1F920F920FB6EC
:100700000F9211242F933F934F935F936F937F9397
:100710008F939F93AF93BF93CF93DF93EF93FF9309
:1007200080912701C0912601D0E087FF24C010925C
:10073000850010928400809127018F5F80932701AC
:1007400080912701082E000C990B8C179D0724F42B
:10075000809127018C30C4F18091840090918500B4
:10076000049680349C4908F47AC08091840090916A
:100770008500049676C080912701082E000C990B05
:100780008C179D07C4F6E09127018E2FEE0F990B71
:10079000FC01EE0FFF1FE80FF91FEB5CFE4F80819D
:1007A00086FFC9CFE09127018E2FEE0F990BFC0138
:1007B000EE0FFF1FE80FF91FEB5CFE4F808160E03A
:1007C0008F730E94EC00B7CF209184003091850098
:1007D000E09127018E2FEE0F990BFC01EE0FFF1F0A
:1007E000E80FF91FEB5CFE4F81819281820F931F0E
:1007F0009093890080938800E09127018E2FEE0F5F
:10080000990BFC01EE0FFF1FE80FF91FEB5CFE4F89
:10081000808186FF11C0E09127018E2FEE0F990B8A
:10082000FC01EE0FFF1FE80FF91FEB5CFE4F80810C
:1008300061E08F730E94EC00FF91EF91DF91CF9107
:10084000BF91AF919F918F917F916F915F914F91E8
:100850003F912F910F900FBE0F901F90189580E43D
:100860009CE990938900809388008FEF8093270103
:10087000E3CF789484B5826084BD84B5816084BD03
:1008800085B5826085BD85B5816085BD80916E002E
:10089000816080936E00109281008091810082605F
:1008A000809381008091810081608093810080919C
:1008B00080008160809380008091B100846080938B
:1008C000B1008091B00081608093B00080917A0087
:1008D000846080937A0080917A00826080937A00AD
:1008E00080917A00816080937A0080917A0080689C
:1008F00080937A001092C10061E08DE00E9438017F
:1009000061E08CE00E94380160E08EE00E943801D6
:10091000809159018C3008F051C061E08AE00E945A
:10092000380180915901282F30E0F901EE0FFF1FA7
:10093000E20FF31FEB5CFE4F9081907C9A609083F6
:1009400010925A0110925B012CE0622F0E94E40881
:10095000829FB001112430E020E0AB01420F531F11
:10096000FA01EE0FFF1FE40FF51FEB5CFE4F9081C5
:1009700096FD16C02F5F3F4F2C30310571F7811166
:100980000FC01092800082E0809381001092850059
:1009900010928400B19A80916F00826080936F0002
:1009A000E09159018E2F90E0FC01EE0FFF1FE80F40
:1009B000F91FEB5CFE4F80818064808390E080E0D3
:1009C0000E94870082E00E94870210E4C0E0D0E02D
:1009D00010937C0080917A00806480937A008091EB
:1009E0007A0086FDFCCF6091780070917900072E27
:1009F000000C880B990B0E94BD0720E030E04AEF05
:100A000053E40E94720820E030EC4FE754E40E9467
:100A10001A07609328017093290180932A0190930B
:100A20002B01E1E080916F018111E0E0E195F0E0C0
:100A3000E45AFE4F848980680E9481028CE091E034
:100A40000E949A01C0902801D0902901E0902A01CB
:100A5000F0902B01A7019601C701B6010E94DF08A3
:100A6000882329F183E191E00E949A018FE191E0CE
:100A70000E949A01C0902801D0902901E0902A019B
:100A8000F0902B0120E030E040EF51E4C701B601C7
:100A90000E946D0818160CF09EC08AE590E00E9436
:100AA0008700209709F494CF0E94000091CF46015F
:100AB0005701E894B7F82FEF3FEF4FE75FE7C50125
:100AC000B4010E94DF0881110DC02FEF3FEF4FE707
:100AD0005FE7C501B4010E94150718161CF487E1F1
:100AE00091E0C2CF2FEF3FEF4FE75FE4C701B601C0
:100AF0000E946D0818161CF48BE191E0B5CF2FEF22
:100B00003FEF4FE75FECC701B6010E94150787FD75
:100B1000F3CF20E030E0A901C701B6010E9415071C
:100B200087FF0AC041E06DE28CE591E00E942E0251
:100B3000F7FAF094F7F8F0942AE037ED43EA5BE334
:100B4000C701B6010E94A9064B015C010E948C07F7
:100B50006B017C010E94BB079B01AC01C501B40184
:100B60000E94A8064B015C014AE0C701B6010E9441
:100B7000A70141E06EE28CE591E00E942E0220E0A8
:100B800030E040E251E4C501B4010E9472084B011B
:100B90005C010E948C076B01F12CE12C4AE0C7013B
:100BA000B6010E94A701C701B6010E94BB079B01C5
:100BB000AC01C501B4010E94A80620E030E040E28B
:100BC00051E40E9472080E948C0790E080E04AE0A5
:100BD0000E94A7014BCF20E030E040EA51E4C7017A
:100BE000B6010E94150787FF03C090E080E057CF51
:100BF00060E08DE00E94EC0054CFCF9310925F0133
:100C000010925E0184E091E090935D0180935C011D
:100C10008CE080936001CFEFC09361018BE0809303
:100C2000620185E08093630184E08093640183E046
:100C30008093650182E080936601109267011092B3
:100C400068011092690110926A0110926B0181E0B3
:100C50000E948702809126018C30A0F491E0980FC9
:100C6000909326018093590190E0FC01EE0FFF1F45
:100C7000E80FF91FEB5CFE4F88EB9BE092838183CA
:100C8000CF910895C0935901FBCF052E97FB1EF419
:100C900000940E945C0657FD07D00E94770607FC6F
:100CA00003D04EF40C945C065095409530952195F8
:100CB0003F4F4F4F5F4F0895909580957095619588
:100CC0007F4F8F4F9F4F08950E949906A59F900DCB
:100CD000B49F900DA49F800D911D11240895B7FF1E
:100CE0000C9464060E946406821B930B0895A1E293
:100CF0001A2EAA1BBB1BFD010DC0AA1FBB1FEE1F96
:100D0000FF1FA217B307E407F50720F0A21BB30BE0
:100D1000E40BF50B661F771F881F991F1A9469F75C
:100D200060957095809590959B01AC01BD01CF01B8
:100D30000895A29FB001B39FC001A39F700D811DB4
:100D40001124911DB29F700D811D1124911D0895D4
:100D50005058BB27AA270E94C0060C9433080E9453
:100D6000250838F00E942C0820F039F49F3F19F430
:100D700026F40C9422080EF4E095E7FB0C941C0872
:100D8000E92F0E94440858F3BA17620773078407D3
:100D9000950720F079F4A6F50C9466080EF4E0951A
:100DA0000B2EBA2FA02D0B01B90190010C01CA0125
:100DB000A0011124FF27591B99F0593F50F4503ED0
:100DC00068F11A16F040A22F232F342F4427585FC2
:100DD000F3CF469537952795A795F0405395C9F7DA
:100DE0007EF41F16BA0B620B730B840BBAF0915092
:100DF000A1F0FF0FBB1F661F771F881FC2F70EC031
:100E0000BA0F621F731F841F48F487957795679503
:100E1000B795F7959E3F08F0B0CF9395880F08F0EF
:100E20009927EE0F9795879508950E94F80708F483
:100E300081E008950E942E070C9433080E942C082C
:100E400058F00E94250840F029F45F3F29F00C94E7
:100E50001C0851110C9467080C9422080E94440845
:100E600068F39923B1F3552391F3951B550BBB27D9
:100E7000AA2762177307840738F09F5F5F4F220F1E
:100E8000331F441FAA1FA9F335D00E2E3AF0E0E815
:100E900032D091505040E695001CCAF72BD0FE2F5F
:100EA00029D0660F771F881FBB1F261737074807F3
:100EB000AB07B0E809F0BB0B802DBF01FF279358AB
:100EC0005F4F3AF09E3F510578F00C941C080C944B
:100ED00067085F3FE4F3983ED4F38695779567956E
:100EE000B795F7959F5FC9F7880F911D96958795E0
:100EF00097F90895E1E0660F771F881FBB1F6217FF
:100F000073078407BA0720F0621B730B840BBA0BBC
:100F1000EE1F88F7E09508950E944C0888F09F57CF
:100F200098F0B92F9927B751B0F0E1F0660F771F0D
:100F3000881F991F1AF0BA95C9F714C0B13091F003
:100F40000E946608B1E008950C946608672F782F18
:100F50008827B85F39F0B93FCCF3869577956795C8
:100F6000B395D9F73EF490958095709561957F4F34
:100F70008F4F9F4F0895E89409C097FB3EF49095DA
:100F80008095709561957F4F8F4F9F4F9923A9F062
:100F9000F92F96E9BB279395F695879577956795F1
:100FA000B795F111F8CFFAF4BB0F11F460FF1BC035
:100FB0006F5F7F4F8F4F9F4F16C0882311F096E9C8
:100FC00011C0772321F09EE8872F762F05C0662376
:100FD00071F096E8862F70E060E02AF09A95660F2F
:100FE000771F881FDAF7880F9695879597F90895E8
:100FF000990F0008550FAA0BE0E8FEEF161617062A
:10100000E807F907C0F012161306E407F50798F091
:10101000621B730B840B950B39F40A2661F0232BAA
:10102000242B252B21F408950A2609F4A140A69526
:101030008FEF811D811D089597F99F6780E870E00B
:1010400060E008959FEF80EC089500240A9416163E
:10105000170618060906089500240A9412161306A6
:10106000140605060895092E0394000C11F4882334
:1010700052F0BB0F40F4BF2B11F460FF04C06F5F50
:101080007F4F8F4F9F4F089557FD9058440F551F26
:1010900059F05F3F71F04795880F97FB991F61F0FA
:1010A0009F3F79F087950895121613061406551F71
:1010B000F2CF4695F1DF08C0161617061806991FDD
:1010C000F1CF86957105610508940895E894BB27D2
:1010D00066277727CB0197F908950E94F80708F44F
:1010E0008FEF08950E9485080C9433080E9425080C
:1010F00038F00E942C0820F0952311F00C941C0865
:101100000C94220811240C9467080E94440870F380
:10111000959FC1F3950F50E0551F629FF001729F9C
:10112000BB27F00DB11D639FAA27F00DB11DAA1FAB
:10113000649F6627B00DA11D661F829F2227B00DF8
:10114000A11D621F739FB00DA11D621F839FA00D83
:10115000611D221F749F3327A00D611D231F849FD3
:10116000600D211D822F762F6A2F11249F5750402A
:101170009AF0F1F088234AF0EE0FFF1FBB1F661FA5
:10118000771F881F91505040A9F79E3F510580F06E
:101190000C941C080C9467085F3FE4F3983ED4F36A
:1011A000869577956795B795F795E7959F5FC1F712
:1011B000FE2B880F911D9695879597F908950E94AB
:1011C000F807880B990B0895991B79E004C0991FC3
:1011D000961708F0961B881F7A95C9F78095089591
:1011E000EE0FFF1F0590F491E02D0994F894FFCFC6
:1011F000000000002D0369019701960154656D7090
:101200003A20006E616E00696E66006F766600209F
:0612100043202020000035
:107E0000112484B714BE81FFF0D085E080938100F7
:107E100082E08093C00088E18093C10086E0809377
:107E2000C20080E18093C4008EE0C9D0259A86E02C
:107E300020E33CEF91E0309385002093840096BBD3
:107E4000B09BFECF1D9AA8958150A9F7CC24DD24C4
:107E500088248394B5E0AB2EA1E19A2EF3E0BF2EE7
:107E6000A2D0813461F49FD0082FAFD0023811F036
:107E7000013811F484E001C083E08DD089C08234E0
:107E800011F484E103C0853419F485E0A6D080C0E4
:107E9000853579F488D0E82EFF2485D0082F10E0AE
:107EA000102F00270E291F29000F111F8ED06801E7
:107EB0006FC0863521F484E090D080E0DECF843638
:107EC00009F040C070D06FD0082F6DD080E0C81688
:107ED00080E7D80618F4F601B7BEE895C0E0D1E017
:107EE00062D089930C17E1F7F0E0CF16F0E7DF06D8
:107EF00018F0F601B7BEE89568D007B600FCFDCFD4
:107F0000A601A0E0B1E02C9130E011968C91119780
:107F100090E0982F8827822B932B1296FA010C0160
:107F200087BEE89511244E5F5F4FF1E0A038BF0790
:107F300051F7F601A7BEE89507B600FCFDCF97BE46
:107F4000E89526C08437B1F42ED02DD0F82E2BD052
:107F50003CD0F601EF2C8F010F5F1F4F84911BD097
:107F6000EA94F801C1F70894C11CD11CFA94CF0C13
:107F7000D11C0EC0853739F428D08EE10CD085E9AC
:107F80000AD08FE07ACF813511F488E018D01DD067
:107F900080E101D065CF982F8091C00085FFFCCF94
:107FA0009093C60008958091C00087FFFCCF809118
:107FB000C00084FD01C0A8958091C6000895E0E648
:107FC000F0E098E1908380830895EDDF803219F02E
:107FD00088E0F5DFFFCF84E1DECF1F93182FE3DFCA
:107FE0001150E9F7F2DF1F91089580E0E8DFEE27F6
:047FF000FF270994CA
:027FFE00040479
:00000001FF
