:020000040000FA
:100000000C9462000C948A000C948A000C948A0070
:100010000C948A000C948A000C948A000C948A0038
:100020000C948A000C948A000C948A000C948A0028
:100030000C948A000C948A000C948A000C948A0018
:100040000C94F6020C948A000C9466030C94400302
:100050000C948A000C948A000C948A000C948A00F8
:100060000C948A000C948A000000000024002700F1
:100070002A0000000000250028002B0000000000DE
:1000800023002600290004040404040404040202DA
:100090000202020203030303030301020408102007
:1000A0004080010204081020010204081020000012
:1000B0000008000201000003040700000000000027
:1000C0000000500511241FBECFEFD8E0DEBFCDBF2A
:1000D00011E0A0E0B1E0EEE4FBE002C005900D927B
:1000E000AE38B107D9F722E0AEE8B1E001C01D9209
:1000F000A433B207E1F710E0C2E6D0E004C02197D4
:10010000FE010E949F05C136D107C9F70E949803DE
:100110000C94A5050C940000833081F028F4813004
:1001200099F08230A9F008958730A9F08830C9F09D
:100130008430B1F4809180008F7D03C08091800075
:100140008F7780938000089584B58F7784BD08955C
:1001500084B58F7DFBCF8091B0008F778093B00006
:1001600008958091B0008F7DF9CFCF93DF93282F32
:1001700030E0F901E255FF4F8491F901E656FF4F57
:10018000D491F901EA57FF4FC491CC23A1F081111A
:100190000E948C00EC2FF0E0EE0FFF1FE458FF4FA1
:1001A000A591B491EC91ED2381E090E009F480E019
:1001B000DF91CF91089580E090E0FACF1F93CF9325
:1001C000DF93282F30E0F901E255FF4F8491F901C8
:1001D000E656FF4FD491F901EA57FF4FC491CC2363
:1001E000A9F0162F81110E948C00EC2FF0E0EE0F89
:1001F000FF1FEE58FF4FA591B4918FB7F894EC9183
:10020000111108C0D095DE23DC938FBFDF91CF9111
:100210001F910895DE2BF8CFCF93DF9390E0FC0180
:10022000E656FF4F24918A579F4FFC018491882303
:10023000D1F090E0880F991FFC01E859FF4FA5917C
:10024000B491FC01EE58FF4FC591D49161110EC0DD
:100250009FB7F8948C91E22FE0958E238C932881A0
:10026000E223E8839FBFDF91CF9108958FB7F89481
:10027000EC91E22BEC938FBFF6CF3FB7F8948091CF
:10028000930190919401A0919501B091960126B5AA
:10029000A89B05C02F3F19F00196A11DB11D3FBFBE
:1002A000BA2FA92F982F8827BC01CD01620F711D8D
:1002B000811D911D42E0660F771F881F991F4A9587
:1002C000D1F70895AF92BF92CF92DF92EF92FF9253
:1002D0000F931F93CF93DF936C017B018B01040F6E
:1002E000151FEB015E01AE18BF08C017D10759F00A
:1002F0006991D601ED91FC910190F081E02DC6014C
:100300000995892B79F7C501DF91CF911F910F9145
:10031000FF90EF90DF90CF90BF90AF900895FC01D9
:10032000538D448D252F30E0842F90E0821B930B5A
:10033000541710F0CF96089501970895FC01918D00
:10034000828D981761F0A28DAE0FBF2FB11D5D9603
:100350008C91928D9F5F9F73928F90E008958FEFA5
:100360009FEF0895FC01918D828D981731F0828D59
:10037000E80FF11D858D90E008958FEF9FEF0895B0
:10038000FC01918D228D892F90E0805C9F4F821B14
:1003900091098F739927089587E991E00E94C00120
:1003A00021E0892B09F420E0822F089580E090E07D
:1003B000892B29F00E94CC0181110C940000089532
:1003C000FC01A48DA80FB92FB11DA35ABF4F2C91CA
:1003D000848D90E001968F739927848FA689B789C1
:1003E0002C93A089B1898C91837080648C93938DB8
:1003F000848D981306C00288F389E02D80818F7D5B
:1004000080830895EF92FF920F931F93CF93DF9312
:10041000EC0181E0888F9B8D8C8D98131AC0E88940
:10042000F989808185FF15C09FB7F894EE89FF890F
:100430006083E889F98980818370806480839FBFAD
:1004400081E090E0DF91CF911F910F91FF90EF90AD
:100450000895F62E0B8D10E00F5F1F4F0F731127BD
:10046000E02E8C8D8E110CC00FB607FCFACFE889F8
:10047000F989808185FFF5CFCE010E94E001F1CF9F
:10048000EB8DEC0FFD2FF11DE35AFF4FF0829FB76C
:10049000F8940B8FEA89FB8980818062CFCFCF935C
:1004A000DF93EC01888D8823B9F0AA89BB89E8899C
:1004B000F9898C9185FD03C0808186FD0DC00FB642
:1004C00007FCF7CF8C9185FFF2CF808185FFEDCFC0
:1004D000CE010E94E001E9CFDF91CF910895FC01A8
:1004E00001900020E9F73197AF01481B590BBC017F
:1004F00087E991E00C9462018F929F92AF92BF9234
:100500000F931F93CF93DF93CDB7DEB7A1970FB6AD
:10051000F894DEBF0FBECDBF19A2423008F44AE006
:100520008E010F5D1F4F842E912CB12CA12CA501A3
:1005300094010E947D05E62FB901CA01EA30F4F466
:10054000E05DD801EE938D01232B242B252B79F729
:1005500090E080E0109719F0CD010E946F02A19603
:100560000FB6F894DEBF0FBECDBFDF91CF911F91C4
:100570000F91BF90AF909F908F900895E95CE1CF6D
:10058000CF92DF92EF92FF92CF93DF936B017C01CA
:100590006DE287E991E00E940202EC01662777276D
:1005A000CB016C197D098E099F094AE00E947C02EB
:1005B0008C0F9D1FDF91CF91FF90EF90DF90CF9038
:1005C0000895CF93DF930E946F02EC0182E191E0E6
:1005D0000E946F028C0F9D1FDF91CF910895BC0187
:1005E000990F880B990B4AE00C947C021F920F9292
:1005F0000FB60F9211242F933F938F939F93AF9336
:10060000BF9380918F0190919001A0919101B09141
:10061000920130918E0123E0230F2D3758F501967A
:10062000A11DB11D20938E0180938F0190939001A5
:10063000A0939101B09392018091930190919401C4
:10064000A0919501B09196010196A11DB11D8093D5
:10065000930190939401A0939501B0939601BF915B
:10066000AF919F918F913F912F910F900FBE0F905F
:100670001F90189526E8230F0296A11DB11DD2CF19
:100680001F920F920FB60F9211242F933F934F9307
:100690005F936F937F938F939F93AF93BF93EF93EA
:1006A000FF9387E991E00E94E001FF91EF91BF91F4
:1006B000AF919F918F917F916F915F914F913F91FA
:1006C0002F910F900FBE0F901F9018951F920F92B1
:1006D0000FB60F9211242F938F939F93EF93FF9355
:1006E000E091A701F091A8018081E091AD01F09126
:1006F000AE0182FD1BC090818091B0018F5F8F732E
:100700002091B101821741F0E091B001F0E0E9568B
:10071000FE4F958F8093B001FF91EF919F918F9144
:100720002F910F900FBE0F901F9018958081F4CFDE
:10073000789484B5826084BD84B5816084BD85B5BC
:10074000826085BD85B5816085BD80916E008160C8
:1007500080936E001092810080918100826080936E
:100760008100809181008160809381008091800070
:100770008160809380008091B10084608093B1009B
:100780008091B00081608093B00080917A00846095
:1007900080937A0080917A00826080937A008091C1
:1007A0007A00816080937A0080917A0080688093DB
:1007B0007A001092C100E091A701F091A80182E0B7
:1007C0008083E091A301F091A4011082E091A50142
:1007D000F091A6018FEC80831092AF01E091AB0104
:1007E000F091AC0186E08083E091A901F091AA012B
:1007F000808180618083E091A901F091AA018081CC
:1008000088608083E091A901F091AA0180818068CD
:100810008083E091A901F091AA0180818F7D80837E
:1008200060E082E00E940C0160E083E00E940C0125
:1008300060E084E00E940C0160E085E00E940C0111
:1008400061E086E00E940C0161E087E00E940C01FB
:1008500061E088E00E940C0161E089E00E940C01E7
:1008600061E08AE00E940C0161E08BE00E940C01D3
:1008700061E08CE00E940C0161E08DE00E940C01BF
:1008800060E086E00E94DE0060E087E00E94DE001B
:1008900060E088E00E94DE0060E089E00E94DE0007
:1008A00060E08AE00E94DE0060E08BE00E94DE00F3
:1008B00060E08CE00E94DE0060E08DE00E94DE00DF
:1008C000C0E0D0E082E00E94B5004C0183E00E94CD
:1008D000B5006C0184E00E94B5005C0185E00E94D7
:1008E000B5007C0185E191E00E946F0281E090E01B
:1008F0008114910411F490E080E00E94EF028DE1F8
:1009000091E00E946F0281E090E0C114D10411F4E3
:1009100090E080E00E94EF0287E291E00E946F0287
:1009200081E090E0A114B10411F490E080E00E9415
:10093000EF0282E391E00E946F0261E070E080E0EC
:1009400090E0E114F10419F460E070E0CB014AE0BA
:100950000E947C0282E191E00E946F02892819F4D2
:10096000AB2809F453C061E086E00E94DE0060E03D
:1009700087E00E94DE0061E08AE00E94DE0060E025
:100980008BE00E94DE0060E088E00E94DE0061E013
:1009900089E00E94DE0060E08CE00E94DE0061E001
:1009A0008DE00E94DE008CE391E00E94E1020E9453
:1009B0003D014B015C0184E6C82ED12CE12CF12CC9
:1009C0000E943D01681979098A099B09683E7340B4
:1009D00081059105A8F321E0C21AD108E108F108C8
:1009E00088EE880E83E0981EA11CB11CC114D104AE
:1009F000E104F10429F7209709F464CF0E94CC01A7
:100A0000882309F45FCF0E9400005CCFCD2811F449
:100A1000EF2819F161E088E00E94DE0060E089E0E3
:100A20000E94DE0061E08CE00E94DE0060E08DE06C
:100A30000E94DE0060E086E00E94DE0061E087E068
:100A40000E94DE0060E08AE00E94DE0061E08BE050
:100A50000E94DE0085E591E0A8CF60E086E00E947C
:100A6000DE0061E087E00E94DE0060E08AE00E9434
:100A7000DE0061E08BE00E94DE0060E088E00E9422
:100A8000DE0061E089E00E94DE0060E08CE00E9410
:100A9000DE0061E08DE00E94DE008CE691E085CF13
:100AA000E7E9F1E01382128288EE93E0A0E0B0E083
:100AB00084839583A683B78384E091E091838083C8
:100AC00085EC90E09587848784EC90E09787868713
:100AD00080EC90E0918B808B81EC90E0938B828B0B
:100AE00082EC90E0958B848B86EC90E0978B868BE4
:100AF000118E128E138E148E0895A1E21A2EAA1B47
:100B0000BB1BFD010DC0AA1FBB1FEE1FFF1FA217BD
:100B1000B307E407F50720F0A21BB30BE40BF50BBA
:100B2000661F771F881F991F1A9469F76095709543
:100B3000809590959B01AC01BD01CF010895EE0F0A
:100B4000FF1F0590F491E02D0994F894FFCF000069
:100B50000000020262018F014F02C0019E01B2013A
:100B60000D0A004E6F7274683A2000207C204561A7
:100B700073743A2000207C20536F7574683A20000B
:100B8000207C20576573743A20004E6F7274682F72
:100B9000536F757468205472616666696320466C91
:100BA0006F7700456173742F5765737420547261B9
:100BB0006666696320466C6F7700416C6C204469FF
:100BC00072656374696F6E732052656420284E6F7E
:0C0BD00020416374697669747929000083
:107E0000112484B714BE81FFF0D085E080938100F7
:107E100082E08093C00088E18093C10086E0809377
:107E2000C20080E18093C4008EE0C9D0259A86E02C
:107E300020E33CEF91E0309385002093840096BBD3
:107E4000B09BFECF1D9AA8958150A9F7CC24DD24C4
:107E500088248394B5E0AB2EA1E19A2EF3E0BF2EE7
:107E6000A2D0813461F49FD0082FAFD0023811F036
:107E7000013811F484E001C083E08DD089C08234E0
:107E800011F484E103C0853419F485E0A6D080C0E4
:107E9000853579F488D0E82EFF2485D0082F10E0AE
:107EA000102F00270E291F29000F111F8ED06801E7
:107EB0006FC0863521F484E090D080E0DECF843638
:107EC00009F040C070D06FD0082F6DD080E0C81688
:107ED00080E7D80618F4F601B7BEE895C0E0D1E017
:107EE00062D089930C17E1F7F0E0CF16F0E7DF06D8
:107EF00018F0F601B7BEE89568D007B600FCFDCFD4
:107F0000A601A0E0B1E02C9130E011968C91119780
:107F100090E0982F8827822B932B1296FA010C0160
:107F200087BEE89511244E5F5F4FF1E0A038BF0790
:107F300051F7F601A7BEE89507B600FCFDCF97BE46
:107F4000E89526C08437B1F42ED02DD0F82E2BD052
:107F50003CD0F601EF2C8F010F5F1F4F84911BD097
:107F6000EA94F801C1F70894C11CD11CFA94CF0C13
:107F7000D11C0EC0853739F428D08EE10CD085E9AC
:107F80000AD08FE07ACF813511F488E018D01DD067
:107F900080E101D065CF982F8091C00085FFFCCF94
:107FA0009093C60008958091C00087FFFCCF809118
:107FB000C00084FD01C0A8958091C6000895E0E648
:107FC000F0E098E1908380830895EDDF803219F02E
:107FD00088E0F5DFFFCF84E1DECF1F93182FE3DFCA
:107FE0001150E9F7F2DF1F91089580E0E8DFEE27F6
:047FF000FF270994CA
:027FFE00040479
:00000001FF
