:020000040000FA
:100000000C945C000C946E000C946E000C946E00CA
:100010000C946E000C946E000C946E000C946E00A8
:100020000C946E000C946E000C946E000C946E0098
:100030000C946E000C946E000C946E000C946E0088
:100040000C9416010C946E000C946E000C946E00CF
:100050000C946E000C946E000C946E000C946E0068
:100060000C946E000C946E00000000080002010069
:100070000003040700000000000000000000000072
:10008000250028002B0000000000240027002A0083
:10009000040404040404040402020202020203032E
:1000A0000303030301020408102040800102040836
:1000B000102001020408102011241FBECFEFD8E049
:1000C000DEBFCDBF21E0A0E0B1E001C01D92A930AC
:1000D000B207E1F70E9460010C94A8030C940000A1
:1000E00090E0FC01E859FF4F2491FC01EC55FF4FD3
:1000F0003491FC01E057FF4FE491EE23C9F0222335
:1001000039F0233001F1A8F4213019F1223029F11E
:10011000F0E0EE0FFF1FE458FF4FA591B4918FB7A9
:10012000F894EC91611126C030953E233C938FBF2B
:1001300008952730A9F02830C9F0243049F780917C
:1001400080008F7D03C0809180008F778093800036
:10015000DFCF84B58F7784BDDBCF84B58F7DFBCFB8
:100160008091B0008F778093B000D2CF8091B000A3
:100170008F7DF9CF3E2BDACF3FB7F8948091050100
:1001800090910601A0910701B091080126B5A89BA6
:1001900005C02F3F19F00196A11DB11D3FBFBA2F19
:1001A000A92F982F8827BC01CD01620F711D811DD9
:1001B000911D42E0660F771F881F991F4A95D1F75E
:1001C00008958F929F92AF92BF92CF92DF92EF925B
:1001D000FF920E94BC004B015C0188ECC82ED12C20
:1001E000E12CF12C0E94BC00681979098A099B094D
:1001F000683E734081059105A8F321E0C21AD10839
:10020000E108F10888EE880E83E0981EA11CB11C5D
:10021000C114D104E104F10429F7FF90EF90DF90BD
:10022000CF90BF90AF909F908F9008951F920F92A4
:100230000FB60F9211242F933F938F939F93AF93F9
:10024000BF938091010190910201A0910301B091AF
:1002500004013091000123E0230F2D3758F501965A
:10026000A11DB11D20930001809301019093020113
:10027000A0930301B09304018091050190910601C0
:10028000A0910701B09108010196A11DB11D8093B5
:10029000050190930601A0930701B0930801BF9157
:1002A000AF919F918F913F912F910F900FBE0F9023
:1002B0001F90189526E8230F0296A11DB11DD2CFDD
:1002C000789484B5826084BD84B5816084BD85B531
:1002D000826085BD85B5816085BD80916E0081603D
:1002E00080936E00109281008091810082608093E3
:1002F00081008091810081608093810080918000E5
:100300008160809380008091B10084608093B1000F
:100310008091B00081608093B00080917A00846009
:1003200080937A0080917A00826080937A00809135
:100330007A00816080937A0080917A00806880934F
:100340007A001092C10030E020E0F901EC55FF4F37
:100350004491F901E057FF4F8491882399F090E090
:10036000880F991FFC01EA57FF4FA591B491FC013A
:10037000E458FF4F859194918FB7F894EC91E42B5A
:10038000EC938FBF2F5F3F4F2E303105F1F63AE0EF
:10039000E32EF12C40E0C42E40E0D42E01E010E02A
:1003A000C801B7010E947A03EC016115710509F4D7
:1003B000CEC0625071096830710578F4FB01EB51D1
:1003C000FE4F27E0B22E0C948E0300021B02320275
:1003D000450258026F027C02980297E0B92E60E055
:1003E0008B2D0E947000B3948EE0B812F8CF61E0BC
:1003F00088E00E94700061E089E00E94700084C083
:1004000060E08B2D0E947000B3948EE0B812F8CF9C
:1004100061E087E00E94700061E088E00E94700067
:1004200061E08AE00E94700061E08BE00E94700051
:1004300061E08DE0E2CF60E08B2D0E947000B3940C
:100440008EE0B812F8CF61E087E00E94700061E0B2
:1004500088E00E94700061E089E00E94700061E025
:100460008AE0E4CF60E08B2D0E947000B3948EE0B0
:10047000B812F8CF61E088E00E94700061E089E086
:100480000E94700061E08CE0D1CF60E08B2D0E9473
:100490007000B3948EE0B812F8CF61E087E00E945C
:1004A000700061E089E00E94700061E08AE0E8CFBE
:1004B00060E08B2D0E947000B3948EE0B812F8CFEC
:1004C00061E087E00E94700061E089E00E947000B6
:1004D00061E08AE00E94700061E08BE0D1CF60E0D3
:1004E0008B2D0E947000B3948EE0B812F8CF61E0BB
:1004F00087E00E9470007BCF61E08B2D0E9470002E
:10050000B3948EE0B812F8CF0E94E100FE0131975B
:10051000E930F10538F5E157FD4F0C948E03D00218
:10052000E002F9020C031D0337034C035B03640371
:1005300060E08B2D0E947000B3948EE0B812F8CF6B
:1005400061E087E00E94700061E088E0A8CF87E06A
:10055000B82E60E08B2D0E947000B3948EE0B8122C
:10056000F8CFD4CFD0E0C0E061E08C2FC630D10509
:1005700011F460E086E00E9470002196C730D1053A
:1005800099F70E94E1000F5F1F4F0436110509F033
:1005900007CFC114D10409F401CF0E940000FECEA0
:1005A000D0E0C0E0CE01019761E0029708F060E082
:1005B0008C2F0E9470002196C730D10599F7E1CFAA
:1005C000D0E0C0E08C2FC230D1054CF09E0123500A
:1005D00031092230310518F0C630D10541F461E00F
:1005E0000E9470002196C730D10561F7CACF60E044
:1005F000F7CFD0E0C0E08C2FC430D1051CF0C6305E
:10060000D10541F461E00E9470002196C730D10508
:1006100091F7B7CF60E0F7CFD0E0C0E0CE018B7F9D
:10062000019760E0029708F461E08C2F0E9470004F
:100630002196C730D10591F7A4CFD0E0C0E08C2F30
:10064000209759F09E01255031092230310528F0BC
:100650002D5F3F4F2230310540F461E00E94700071
:100660002196C730D10559F78CCF60E0F7CFD0E0A5
:10067000C0E08C2F209731F09E01225031092530A7
:10068000310540F461E00E9470002196C730D10529
:1006900081F777CF60E0F7CFD0E0C0E061E0C33012
:1006A000D1050CF060E08C2F0E9470002196C730BD
:1006B000D105A1F766CFC0E061E08C2F0E947000E9
:1006C000CF5FC730C9F75DCFD0E0C0E08C2FC4301A
:1006D000D10534F09E01255031092230310540F416
:1006E00061E00E9470002196C730D10579F749CFAB
:1006F00060E0F7CF97FB072E16F4009407D077FD44
:1007000009D00E94940307FC05D03EF49095819592
:100710009F4F0895709561957F4F0895EE0FFF1FCD
:100720000590F491E02D0994AA1BBB1B51E107C071
:10073000AA1FBB1FA617B70710F0A61BB70B881F71
:10074000991F5A95A9F780959095BC01CD01089500
:04075000F894FFCF4B
:107E0000112484B714BE81FFF0D085E080938100F7
:107E100082E08093C00088E18093C10086E0809377
:107E2000C20080E18093C4008EE0C9D0259A86E02C
:107E300020E33CEF91E0309385002093840096BBD3
:107E4000B09BFECF1D9AA8958150A9F7CC24DD24C4
:107E500088248394B5E0AB2EA1E19A2EF3E0BF2EE7
:107E6000A2D0813461F49FD0082FAFD0023811F036
:107E7000013811F484E001C083E08DD089C08234E0
:107E800011F484E103C0853419F485E0A6D080C0E4
:107E9000853579F488D0E82EFF2485D0082F10E0AE
:107EA000102F00270E291F29000F111F8ED06801E7
:107EB0006FC0863521F484E090D080E0DECF843638
:107EC00009F040C070D06FD0082F6DD080E0C81688
:107ED00080E7D80618F4F601B7BEE895C0E0D1E017
:107EE00062D089930C17E1F7F0E0CF16F0E7DF06D8
:107EF00018F0F601B7BEE89568D007B600FCFDCFD4
:107F0000A601A0E0B1E02C9130E011968C91119780
:107F100090E0982F8827822B932B1296FA010C0160
:107F200087BEE89511244E5F5F4FF1E0A038BF0790
:107F300051F7F601A7BEE89507B600FCFDCF97BE46
:107F4000E89526C08437B1F42ED02DD0F82E2BD052
:107F50003CD0F601EF2C8F010F5F1F4F84911BD097
:107F6000EA94F801C1F70894C11CD11CFA94CF0C13
:107F7000D11C0EC0853739F428D08EE10CD085E9AC
:107F80000AD08FE07ACF813511F488E018D01DD067
:107F900080E101D065CF982F8091C00085FFFCCF94
:107FA0009093C60008958091C00087FFFCCF809118
:107FB000C00084FD01C0A8958091C6000895E0E648
:107FC000F0E098E1908380830895EDDF803219F02E
:107FD00088E0F5DFFFCF84E1DECF1F93182FE3DFCA
:107FE0001150E9F7F2DF1F91089580E0E8DFEE27F6
:047FF000FF270994CA
:027FFE00040479
:00000001FF
